:100000006F10B04B00000000F2010000F40100008E
:1000100000000000000000000000000000000000E0
:1000200000000000000000000000000000000000D0
:10003000CE05000000000000B81C00000000000019
:10004000B81C0000B81C0000B81C0000B81C000060
:10005000B81C0000B81C00007A080000B81C0000A2
:10006000B81C000032020000B81C0000B81C0000E0
:10007000B81C0000B81C0000B81C0000B81C000030
:1000800056020000B81C0000B81C0000B81C00009C
:10009000B81C0000B81C0000B81C000000000000E4
:1000A000511126C022C206C4828282441244A24058
:1000B000310182802A86014593F6150091C232955E
:1000C00085810606F5F9828000000000634E050276
:1000D00063C305042E86AA857D5515C285466378BF
:1000E000B6006356C00006068606E36CB6FE014500
:1000F00063E4C500918D558D85820582F5FA828075
:100100008682C93F2E8582823305A04063D70500D1
:10011000B305B040C1B7B305B0408682653F330533
:10012000A0408282868263C70500634905005D376F
:100130002E858282B305B040E35B05FE3305A04007
:10014000513F3305B040828200003D432A876373EC
:10015000C3029377F700BDEFADE5937606FF3D8AC6
:10016000BA960CC34CC30CC74CC74107E36BD7FE10
:1001700011E28280B306C3408A0697020000969679
:100180006780A6002307B700A306B7002306B700C1
:10019000A305B7002305B700A304B7002304B700E5
:1001A000A303B7002303B700A302B7002302B700DD
:1001B000A301B7002301B700A300B7002300B700D5
:1001C000828093F5F50F93968500D58D9396050162
:1001D000D58D61B793962700970200009696868288
:1001E000E78086FA9680C1171D8F3E96E374C3F8A8
:1001F000A5B701A0B707EFBE37E700E09387070870
:100200003CC701A0EFF2DFE951112E84AA84854595
:10021000414502C002C202C4EF10B0778D478A8503
:1002200037150140648022C43EC2EF107060310176
:10023000ADBD0965EF10B05E09CD0965EF10D05E68
:1002400037050240814513054504EF1050592388B6
:10025000018A73002030611122C2374401409305A6
:10026000404213050480EF20600A15C583570480BF
:1002700037050240054793F7F70FDC818357448029
:1002800081451305850593F7F70FDC819C81238653
:10029000E186EF10D0541244210173002030EFF2B8
:1002A0003FE05D712AC22E84B28481451306C002EC
:1002B000481036C002C402C602C802CA02CC02CE2E
:1002C00002D061351165854513050502EF10706C8C
:1002D0008D476316F40085450545EF10B0698547E5
:1002E000639DF41485450545EF10B06A370701405A
:1002F0005C43B7062000B7140140D58F5CC3930759
:1003000000047C848D473EC62C00E14713850440E1
:100310003EC8EF10F05193070002138504407C841F
:100320002C0091473EC8EF10B0509247B7440140AF
:100330004C083ECA13850480B7070C003ECE02CCA1
:1003400023100102EF10B0688D47631FF40C0247C1
:1003500037040240B7070020130544042380E70058
:10036000EF10503B938701873ED4C1473ED682476A
:10037000938244801303000889664C1013054404DB
:1003800016D21ADCB6C43ED802DA02DE82C082C2BD
:1003900082C6EF1050410546894513054404EF100D
:1003A000504537E700E0B70700022320F710054665
:1003B0009305000813850480EF101073130584055E
:1003C000EF105035B7470140938247809387C18231
:1003D0003ED482471303000889664C101305840538
:1003E0003ED816D21ADCB6C402D602DA02DE82C0C9
:1003F00082C282C6EF10303B054693050004138588
:100400000480EF10706E854513058405EF10303DB4
:1004100005469305404213850480EF109069854797
:1004200037E700E02322F7103745014085451305E3
:100430000580EF10B06661618DB9930700027C847E
:10044000B71401408D473EC62C00E1471385044098
:100450003EC8EF10F03D93070004C1B5EFF25FC452
:1004600037440140AA84930704803E859305000821
:10047000EF103069B7470140938707807DD5A68587
:1004800013050480EF1070670DB1EFF27FC12A846D
:100490000305040011E111B91375F50F05047D3F43
:1004A000C5BF1301C1ED2328B110232AC110232C8D
:1004B000D1102A86140A9305001048002326111033
:1004C000232EE1102320F11236C0EF1030704800C7
:1004D0006D3F8320C110130141128280EFF25FBC97
:1004E0009387C1869C237111014493F7F70FBDCB0D
:1004F0002AC03705024013058505AE84EF10D030C1
:10050000370700208347070013F4F40F898F93F710
:10051000F70F02469386C18663F4970013F4F70F32
:1005200081471383C18293F5F70F63E08504B70415
:10053000024013858405814523800600EF10302A90
:100540001383C182B707002023A264061387070024
:100550000C23938484052685EF10D02A85452685B3
:10056000EF10F0272285110189B6B305F300882129
:10057000B305F600850788A17DB7EFF27FB237F4A7
:1005800000E0B707002023200400AA8403A5870306
:100590009305803E8136A685313E7D1508C823240B
:1005A0000400BD471CC00567B7E700E023A0E710C3
:1005B000EDBCEFF2FFAE93878182A945844313849B
:1005C0008182093E1C40858FE3EEA7FEF9BC93872C
:1005D00081829843050798C3B7F700E023A207007C
:1005E00073002030EFF2DFAB5D712A842EC0B2843D
:1005F00081456146680036C2893E1306C0028145C6
:100600004810A136238E818A2380918C1387418BD9
:10061000814793F6F70F63E396168545130500208F
:10062000EF10303789476316F40085450545EF1014
:1006300070343165EF10B028B727014013850740AB
:10064000EF10207293B7240093C717003EC893079A
:10065000E4FF93B717003ECAB7070E003ECCB7279A
:100660000140138507406C0002C602CE23009102B0
:10067000EF108071B727014013850740B7050002CE
:10068000EF10100889476319F400B727014085452A
:1006900013850740EF102075B727014013850740E9
:1006A0008545EF104073B727014013850740EF10D1
:1006B000A074B7270140138707403A85EF10607494
:1006C000B7270140138707406DF93A85EF10E073B3
:1006D000B7270140938707403E85EF10A073B727E7
:1006E0000140938707406DF981476391970A8947D5
:1006F0006314F4083704024013058400EF109001DE
:10070000B72401409387C4443ED2938701813ED4ED
:1007100092474C10130584003ED8930700083EDC36
:10072000930700103EDE93070040BEC0930700020F
:10073000BEC28D67BEC402D602DA82C6EF10B00612
:100740000546894513058400EF10B00A054691451A
:1007500013058400EF10F009B7E700E03707400009
:1007600085451305840023A0E710EF105007854549
:1007700013850440EF10806A616105BA8246BE9617
:100780009022B306F700850790A261B582461387D1
:10079000170037250140B6978C231376F70F9D4637
:1007A000130505403AC4EF10E0682247BA8735BF09
:1007B000EFF21F8F03C7C18B71119386C18B8947DD
:1007C00036C0AA84631FF700372501408145130511
:1007D0000540EF10A0643705024081452105EF1068
:1007E0001000A685B7240140138504409D460546A8
:1007F000EF10406413850440854537240140EF1015
:10080000E0619304044089452685EF10C06E65DDE4
:1008100013050440EF10A06D82470947AA84942372
:100820006399E602130504408145EF10205F0144FF
:1008300083C7018C6363F4023705024085452105B7
:10084000EF10E07937250140854513050540EF108D
:10085000E05C268511016FF05F859387418BA2973D
:100860008C2305041374F40F372501409D4622861E
:1008700013050540EF10005C65BF0945EF10207AB5
:1008800019C50945EF10407A09472382E1821145D5
:10089000EF10E07819C51145EF1000790547238264
:1008A000E18273002030EFF2AFFF03C7C18E631BFC
:1008B000070E0547AA859387C18E6312E50403D707
:1008C000A18E098B55EF054798A3238AB18E8547E2
:1008D000639CF506B70700209387870094438CC379
:1008E00023A8D18E99476398F508B707002093870E
:1008F0000702944323A8D18E054798C3ADA80947A2
:100900006316E50003D7A18E118B6DBF0D476316EB
:10091000E50003D7A18E218B75B711476316E5005B
:1009200003D7A18E418B79BF15476317E50003D725
:10093000A18E1377070279B71947E316E5F803D7B5
:10094000A18E13770704BDBF0947639BE5003707F6
:1009500000201307070110431CC323A8C18E59B7F9
:100960000D476391E5023707002013074701104345
:1009700023A8C18E1CC337350000130545EA153680
:100980006FF0AFF211476397E500370700201307B8
:100990008701F1BF1547E397E5F4370700201307F8
:1009A000C701F1B737350000130545ECF93CC9BF65
:1009B000EFF20FEF83C6C18E0547639AE608938571
:1009C000C18E03C7418F1386418F9387018F6310B8
:1009D000D7028843B706002023A4A60099466319CE
:1009E000D7029443370700202320D70215A0894659
:1009F0006318D7008843B706002023A8A600F9BFD4
:100A00008D466314D702944337070020232AD7006A
:100A100037350000238005002300060023A00700CF
:100A20001305C5E69D346FF04FE891466318D70073
:100A3000944337070020232CD700D9BF9546E31FE6
:100A4000D7F8944337070020232ED700D1B7373586
:100A50000000130545E8F9B7EFF28FE483C7C18EB4
:100A60000547639CE70037350000A38AF18E130524
:100A700005EEEFF09FA16FF04FE33735000013054F
:100A800085EFC5BF85476311F5029387418E9A2391
:100A9000136727009AA39947631AF5029387418E3B
:100AA0009A231367070415A089476318F5009387F5
:100AB000418E9A2313674700F1BF8D476319F500F4
:100AC0009387418E9A23136787009AA38280914768
:100AD0006318F5009387418E9A2313670701F5B7D2
:100AE0009547E31AF5FA9387418E9A231367070215
:100AF000E9BFEFF2EFDA373500001305C5F1EFF08B
:100B0000DF986FF08FDAEFF2AFD9371701405C470B
:100B100037040020711193C717005CC79387618E5B
:100B2000982383248400130484001337170098A3A8
:100B300003A7C19183A78182A685998F3E853EC078
:100B4000EFF04FD9824723A0A19063E4970085047A
:100B500004C01840894763F8E7009387C18F9A2340
:100B6000136727009AA311016FF02FD4EFF24FD330
:100B7000371701405C4737040020711193C72700E5
:100B80005CC79387718E98238324040113040401A6
:100B90001337170098A303A7419283A78182A685E4
:100BA000998F3E853EC0EFF0EFD2824723A2A190FD
:100BB00063E49700850404C01840914763F8E70098
:100BC0009387C18F9A23136747009AA311016FF08F
:100BD000CFCDEFF2EFCC130141FA93050004680882
:100BE000EFF0DF8F938781823EC8B707002093879D
:100BF00047013EC4630405660347C101930700072C
:100C00006314F700054545310347C1019307E0062A
:100C10006313F700713B0347C10193075006631349
:100C2000F7001D3D0347C10193075007631AF70002
:100C30000545893D373500001305051FEFF0FF849A
:100C40000347C101930730076318F70437350000E5
:100C50001305C51FEFF07F83C2473735000013052A
:100C600085218C43EFF0FF8383A5818F373500000A
:100C700013054522EFF0FF8203D6E18B83D5218C4B
:100C80003735000013054523EFF0BF8137350000ED
:100C900013058525EFF06FFF0347C1019307400659
:100CA000631FF752B734000013858424EFF0EFFD83
:100CB0003735000013054527EFF02FFD13858424F9
:100CC000EFF0AFFC3735000013058529EFF0EFFB9F
:100CD000C247373500001305452A8C4337340000DE
:100CE000EFF02FFC83A5818F373500001305452BCE
:100CF000EFF02FFBB707002083A547003735000032
:100D00001305852CEFF0EFF913050417EFF0EFF75B
:100D1000373500001305052EEFF02FF7B707002039
:100D200083A58700B73600001385862F139625000C
:100D30002E960606EFF0EFF683D7A18E1387A18ECD
:100D40003AC2B73600001387C18F898B26CC36C6CE
:100D50003AC0639607541E23898B63970754B735AF
:100D6000000093858518B734000013858431EFF0B7
:100D70004FF383A5818CB737000013858732EFF0DE
:100D80004FF203C7618EB73700003ECA63130752A4
:100D9000B73500009385C519B737000013850734B0
:100DA000EFF02FF013050417EFF02FEE37350000AA
:100DB0001305C534EFF06FED3707002083250701D9
:100DC000B247139625002E961385872F0606EFF05F
:100DD0004FED92479A23118B6312074E02471A2355
:100DE000118B6312074EB735000093858518138564
:100DF0008431EFF00FEBD24783A5C18C1385873286
:100E0000EFF02FEA03C7718EB73700006312074C6B
:100E1000B73500009385C51913850734EFF06FE8E7
:100E200013050417EFF06FE637350000130545365C
:100E3000EFF0AFE5A2478C43B247139625002E96FC
:100E40001385872F0606EFF0CFE592479E23A18BEF
:100E50006395074882479E23A18B63950748B73562
:100E600000009385851813858431EFF08FE33735C3
:100E700000009305000413050538EFF08FE2130519
:100E80000417EFF08FE03735000013058539EFF0D8
:100E9000CFDFB707002083A5870137350000130592
:100EA000453BEFF00FE092479E23C18B63910744CF
:100EB00082479E23C18B63910744B7350000938519
:100EC000851813858431EFF0CFDD13050417EFF09B
:100ED000CFDB373500001305053DEFF00FDBB7071B
:100EE000002083A5C701B247139625002E961385CF
:100EF000872F0606EFF0EFDA92479E2393F707025B
:100F00006391074082479E2393F70702639007404F
:100F1000B73500009385851813858431EFF06FD8BD
:100F2000B71701409C47918B6397073EB735000088
:100F30009385051B373500001305853EEFF06FD60E
:100F400013050417EFF06FD4373500001305853F04
:100F5000EFF0AFD3B707002083A50702B24713967F
:100F600025002E961385872F0606EFF08FD3924724
:100F70009E2393F707046395073A82479E2393F7CE
:100F800007046394073AB7350000938585181385E5
:100F90008431EFF00FD183A5C18DD24713858732FD
:100FA000EFF02FD083D5218C373500001305054194
:100FB000EFF02FCF83D5E18B373500001305454285
:100FC000EFF02FCE13050417EFF02FCC37350000CC
:100FD00013058543EFF06FCBB707002083A54702C9
:100FE0003737000013050745EFF0AFCB82479E234C
:100FF00093F7072063900734B73500009385851C6D
:1010000013858431EFF0EFC983A5018ED247138594
:101010008732EFF00FC913050417EFF00FC737350C
:10102000000013058546EFF04FC6B707002083A5E3
:10103000C7003737000013050745EFF08FC6373577
:10104000000013050548EFF04FC492473735000004
:101050001305454A9A23935717409355274085898E
:10106000858BAE97935537408589AE97935547400A
:101070008589AE97935557408589AE9793556740BC
:101080008589BE95EFF0EFC113050417EFF0EFBFB0
:10109000373500001305454BEFF02FBF03C7C18E56
:1010A000631F0728B73500009385851D138584319C
:1010B000EFF02FBF9387C18E9C238DC383C5418FD3
:1010C000373500001305854CEFF0AFBD83A5018FC8
:1010D000373500001305854DEFF0AFBC130504173D
:1010E000EFF0AFBA373500001305454FEFF0EFB919
:1010F0009387418E8E233735000013058550EFF01E
:101100004FBA9387418E9E239384418E898B639D32
:101110000722B73500009385851E3735000013057B
:10112000C551EFF00FB89E20918B63940722B7351D
:1011300000009385851E373500001305C552EFF07A
:101140004FB69E20A18B639B0720B7350000938587
:10115000851E373500001305C553EFF08FB49E2070
:10116000C18B63920720B73500009385851E373504
:1011700000001305C554EFF0CFB29E2093F707028D
:101180006398071EB73500009385851E373500002C
:101190001305C555EFF0EFB09E2093F70704639E4B
:1011A000071CB73500009385851E373500001305F1
:1011B000C556EFF00FAF13050417EFF00FADE24780
:1011C00013858724EFF06FAC373500001305C55742
:1011D000EFF0AFABE24713858724EFF00FAB034787
:1011E000C101930710036311F7020545EFF0EFB853
:1011F00037350000B70700201307803E1305455917
:1012000023A2E700EFF06FA80347C1019307200373
:101210006311F7022945EFF04FB637350000B707E5
:101220000020130740061305055A23A2E700EFF03C
:10123000CFA50347C101930730036311F7021305DC
:101240004006EFF08FB337350000B707002029477D
:101250001305055B23A2E700EFF02FA3C2478443E9
:1012600083A781929D8CA24726858043A285EFE0CB
:101270007FE623A4A19063E58400A247050480C310
:10128000A2479843CD4763F8E7009387C18F9A231D
:10129000136787009AA31301C1056FE01FE1B735FB
:1012A000000093854517C1B4B73500009385C51775
:1012B0005DBCB735000093854519F9BCB735000012
:1012C000938545172DB6B73500009385C51705B62C
:1012D000B73500009385451981B6B7350000938571
:1012E000451751B6B73500009385C517ADBEB73564
:1012F000000093854517F1B6B73500009385C517F3
:10130000C9B6B73500009385451739B1B735000028
:101310009385C51711B1B73500009385851A19B9A2
:10132000B7350000938545179DB1B735000093850B
:10133000C517B1B9B73500009385C51BD1B1B73515
:1013400000009385051D9DB3B73500009385051EEC
:10135000E9B3B73500009385051EF1BBB735000032
:101360009385051EFDB3B73500009385051E01B5B5
:10137000B73500009385051E11BDB7350000938574
:10138000051E25B5EFE2DFD13735000071111305D9
:10139000055CEFF08F8F1384818F0C403735000090
:1013A00013054522EFF0EF8F03D6E18B83D5218C17
:1013B0003735000013054523EFF0AF8E03A7C19228
:1013C0001C403704002083248401998F3E85A68524
:1013D0003EC0EFE03FD0824723A6A19013048401D2
:1013E00063E49700850404C018409307C00363F8C2
:1013F000E7009387C18F9A23136707019AA311010E
:101400006FE0BFCAEFE2DFC9B7170140984771111B
:10141000118BB336E0009387818E39CF982329EF63
:101420003735000005471305455E98A3EFF0EF85BB
:1014300003A701933704002083A781828324C4017A
:101440001304C401998F3E85A6853EC0EFE09FC876
:10145000824723A8A19063E49700850404C0184044
:101460008D4763F8E7009387C18F9A2313670702BC
:101470009AA311016FE07FC394A35DBFEFE25FC247
:1014800071110945EFF0CFB285652391A18C938549
:1014900045CE2A84EFE01FC21356A500239FC18AC0
:1014A000373500004206A28541821305C55FEFE093
:1014B0005FFF03A741933704002083A78182832421
:1014C000040213040402998F3E85A6853EC0EFE016
:1014D0007FC0824723AAA19063E49700850404C0DB
:1014E00018409307B00363F8E7009387C18F9A23EE
:1014F000136707049AA311016FE03FBBEFE25FBAE5
:1015000003D7C18F9387C18F9376270095C683D663
:10151000A18E898A95E2B7060020938686009042C4
:10152000854563FBC500759B9AA31387818C7D1647
:1015300090C21443850614C39A239376470095C638
:1015400083D6A18E918A95E2B70600209386060184
:101550009042854563FBC5006D9B9AA31387C18CA0
:101560007D1690C21443850614C39A239376870090
:1015700095C683D6A18EA18A95E2B70600209386F0
:1015800046019042854563FBC5005D9B9AA3138786
:10159000018D7D1690C21443850614C39A23937659
:1015A000070195C683D6A18EC18A95E2B7060020B1
:1015B000938686019042854563FBC5003D9B9AA3B7
:1015C0001387418D7D1690C21443850614C39A2358
:1015D0009376070285CA83D6A18E93F606029DE212
:1015E000B70600209386C6019042854563FCC5007E
:1015F0001377F7FD9AA31387818D7D1690C214434C
:10160000850614C39A239376070485CA83D6A18ED0
:1016100093F606049DE2B7060020938606029042E8
:10162000854563FCC5001377F7FB9AA31387C18D2B
:101630007D1690C21443850614C3962337070020F5
:101640001307470213F6062019CE1043854563FCA5
:10165000C50093F6F6DF96A39387018E94437D161B
:1016600010C3850694C303A5818283A78193004399
:101670001D8DA285EFE01FA623ACA190854763F3E3
:1016800087023735000013054561EFE01FE01305C1
:101690004006EFE01FF2B707EFBE37E700E09387A1
:1016A00007083CC76FE07FA003A7818C914763FECA
:1016B000E7009387C18F9A23136727009AA3938724
:1016C000A18E9A23136727009AA303A7C18C914781
:1016D00063FEE7009387C18F9A23136747009AA39D
:1016E0009387A18E9A23136747009AA303A7018DBE
:1016F000914763FEE7009387C18F9A2313678700A2
:101700009AA39387A18E9A23136787009AA383A72E
:10171000418D89CF9387C18F9A23136707019AA3BD
:101720009387A18E9A23136707019AA303A7818D3C
:10173000914763FEE7009387C18F9A2313670702DF
:101740009AA39387A18E9A23136707029AA303A7EC
:10175000C18D914763FEE7009387C18F9A2313677A
:1017600007049AA39387A18E9A23136707049AA369
:101770008280EFE2FF921301C1FDC9292945EFE004
:10178000DFDF93074006370400201305007D232286
:10179000F400EFE01FE2C1450545EFE0BFA6C145FB
:1017A0000945EFE03FA6930580041145EFE09FA5B2
:1017B00081454145EFE01FA5716593060004014690
:1017C0008D4513050520EFE09FAD8947814605460D
:1017D0000C1001452300F102EFE0DFE0B7170140F4
:1017E0009C478983858B2384F18EEFF08FB093071C
:1017F00044003ECE9387818298439387418C9443E3
:1018000013848182158FF2461386818F32C09442F1
:101810006367D7001842050718C2184098C313879A
:10182000C1913AC2138741923AC4138781923AC652
:101830001387C1923AC81387019383D7418E3ACA5E
:10184000138741933ACC9384418E6382070E13F73A
:10185000270019CF03D7C18F83D6A18E558F098B4F
:1018600001EBF59B9EA012471C401CC3EFF0AFA9F3
:101870009A209377470099CF83D7C18F83D6A18EC3
:10188000D58F918B81EB6D9B9AA01C4022471CC386
:10189000EFF0CFAD9A209377870099CF83D7C18F90
:1018A00083D6A18ED58FA18B81EB5D9B9AA01C4026
:1018B00032471CC3EFF0EFB19A209377070185C33D
:1018C00083D7C18F83D6A18ED58FC18B89EB8247F9
:1018D0003D9B9AA09C4342471CC3EFF0BFAA9A20AD
:1018E000937707028DC383D7C18F83D6A18ED58FFF
:1018F00093F7070289EB1377F7FD9AA01C40524734
:101900001CC3EFF03FB09A20937707048DC383D7B1
:10191000C18F83D6A18ED58F93F7070489EB1377F8
:10192000F7FB9AA01C4062471CC3EFF03FB59387BA
:10193000518F98235DC703C7418F9384418F55C34F
:10194000238007008547631BF70083D7A18E898B0F
:10195000A1E31C4012471CC3EFF0EF9A982089477F
:10196000631BF70083D7A18E918BA1E31C40224714
:101970001CC3EFF0AF9F98208D47631BF70083D700
:10198000A18EA18BA9E31C4032471CC3EFF06FA4CA
:1019900098209147631BF70083D7A18EC18BB1E3D9
:1019A0001C4042471CC3EFF0FF9D98209547631CE5
:1019B000F70083D7A18E93F7070285E71C405247B3
:1019C0001CC3EFF03FA498209947631CF70083D70E
:1019D000A18E93F7070491E71C4062471CC3EFF008
:1019E000FFA99387019294431840158FB7060020F2
:1019F00083A6C6006366D700184098C3EFF0DFCA1D
:101A00009387819394431840158FB706002083A6CF
:101A10004602636BD70003D7C18F1377072009E70E
:101A2000184098C3EFF09FAD12471C401843998FA0
:101A3000370700200327870063EBE70083D7C18FB8
:101A4000898B91E71C4012471CC3EFF0CF8B2247D4
:101A50001C401843998F370700200327070163EBC9
:101A6000E70083D7C18F918B91E71C4022471CC3AD
:101A7000EFF0CF8F32471C401843998F3707002073
:101A80000327470163EBE70083D7C18FA18B91E761
:101A90001C4032471CC3EFF0CF93824742479C4320
:101AA0001843998F370700200327870163ECE7006D
:101AB00083D7C18FC18B99E7824742479C431CC3A0
:101AC000EFF05F8C52471C401843998F3707002076
:101AD0000327C70163ECE70083D7C18F93F70702A1
:101AE00091E71C4052471CC3EFF0DF9162471C4056
:101AF0001843998F3707002003270702E3ECE7CE4E
:101B000083D7C18F93F70704E39607CE1C40624743
:101B10001CC3EFF0BF96F9B9EFE28FD8371402403B
:101B20001C403707FFF8611193E717001CC05C40A9
:101B30004145F98F5CC01C403707F7FE7D17F98FD0
:101B40001CC01C403707FCFF7D17F98F1CC05C4090
:101B500041777D17F98F5CC0B7079F001CC4B9237C
:101B60001C4C3706020093E707021CCCB717014054
:101B700003A70740938607401377F7F023A0E740B9
:101B800003A707401367070823A0E74089479CCABB
:101B900002C002C21C4C37070140A16693E7170040
:101BA0001CCC5C43D58F5CC31C404167B716024018
:101BB000D98F1CC009679C42F18F3EC282478507BE
:101BC0003EC0924781E78247E397E7FEB71702409E
:101BD0009C431397E7006359070685473EC21247A7
:101BE00085476310F706B72702409843C176FD1674
:101BF000719B98C398431367170098C3B7170240A7
:101C0000D843D8C3D843758FD8C3D843C166558F3E
:101C1000D8C39843B7060001558F98C398439316CD
:101C20006700E3DD06FED843B7160240719BD8C3B8
:101C3000D84313672700D8C32147DC42B18BE39E0A
:101C4000E7FE21016FE06FC602C251BFEFE24FC550
:101C5000371702405C43370400209146B18B1304D0
:101C600084036385D700A1466382D704B7376E012A
:101C7000938707601CC0B7160240DC42084091837E
:101C800013F7F700B707002093878702BA978C23D2
:101C9000DC4293F5F50F93F707083357B50081E75A
:101CA000EFE04FC32A8718C06FE02FC05C43B777BF
:101CB000DC02938707C07DBF01A097F1FF1F9381CE
:101CC000E1C0138181F31305000A97E5FF1F938597
:101CD000653317E6FF1F1306E63263FAC500832259
:101CE000050023A0550011059105E3EAC5FE17255F
:101CF00000001305E59897E5FF1F9385A53013862F
:101D0000818063FAC5008322050023A055001105D8
:101D10009105E3EAC5FE138581809385019463777D
:101D2000B500232005001105E36DB5FEB7220000C4
:101D300093820288739002308D427390428097E2C2
:101D4000FFFF9382222C93E2320073905230EFF027
:101D5000BFDC97020000938202A2739012347300DA
:101D60002030B727014093870740631EF500EFE25C
:101D70002FB3854513050020252981451305002033
:101D800005296FE08FB282805C413707F1FF1307AE
:101D9000F7EF7D8FDC419441A207D58FD98F5CC1CD
:101DA0001C4537F7F1FF1307D77FD4457D8F9C493A
:101DB000D58F94458606D58FD98F1CC55C553707BE
:101DC00010FF7D177D8FDC29FD1793F7F70FD207E2
:101DD000D98F5CD582801C4589C593E717001CC547
:101DE0008280F99BEDBF1C4589C593E707101CC590
:101DF000828093F7F7EFE5BF1C4593E787001CC58A
:101E0000828008450D81058982801C4593E7470043
:101E10001CC5828008450981058982801C4591C5C1
:101E200037075000D98F1CC582803707B0FF7D1758
:101E3000F98FD5BFA54763F8B704138765FF9317DC
:101E400017008322C500BA971D433313F3001343D1
:101E5000F3FF33735300B397F600B3E767005CC535
:101E6000994763E3C7047D16931726003E96585999
:101E7000FD47B397C70093C7F7FFF98FB395C50028
:101E8000DD8D4CD982809397150003230501AE9711
:101E90001D473317F7001347F7FF33776700B397F2
:101EA000F6005D8F18C96DBFB14763E2C7026516C2
:101EB000931726003E961859FD47B397C70093C75E
:101EC000F7FFF98FB395C500DD8D0CD982804D16D3
:101ED0001317260054553A96FD47B397C70093C78A
:101EE000F7FFF58FB395C500DD8D4CD58280684531
:101EF00042054181828008416D8D3335A00082808A
:101F00005C41370700FA7D17F98F5CC15C41DD8DBC
:101F10004CC182801C4141677917F98F1CC1232075
:101F200005002322050023240500B70702402326CD
:101F30000500138787006317E500D8431367F70090
:101F4000D8C382801387C7016316E500D84313679F
:101F5000070FFDB7138707036318E500D8438566AD
:101F6000938606F0558FE9BF138747046315E50094
:101F7000D843BD66C5BF138787056316E500D84300
:101F8000B7060F00C5B71387C7066316E500D84329
:101F9000B706F000C1BF13870708E314E5FAD8437A
:101FA000B706000FC1B71841E177BD0794517D8F87
:101FB0009C45D58F9449D58FD449D58F944DD58FD5
:101FC000D44DD58FD451D58F9455D58FD98F1CC171
:101FD000DC455CC19C411CC5DC415CC582801C4168
:101FE00089C593E717001CC1828041677917F98F73
:101FF000DDBF1C4101C6DD8D0CC1828093C5F5FF9C
:10200000FD8DDDBF4CC18280484142054181828007
:10201000B70702409C437D8D3335A0008280EFE2FC
:102020002F88FD376FE06F88B7070240C8C38280F2
:10203000944593F7060193F2F60081C7DC41B3E2C1
:10204000F20083D3050093F7F30FA5C30323050024
:10205000611122C226C081471304800293048004C8
:1020600005473316F70033F7C3006312E602939572
:1020700027003D473317B7001347F7FF3373670057
:10208000B395B20033E36500639D860050C98507B0
:102090002147E397E7FC1244232065008244210195
:1020A0008280E39696FE10C9DDB782803717024022
:1020B0001C430E0593F777F05D8D08C38280B71639
:1020C0000240DC4241771307F77FF98F5D8DC8C26C
:1020D0008280EFD2FFFC371702405C4391462A848E
:1020E000B18B6385D700A1466380D708B7376E01EF
:1020F000938707601CC0B7160240DC42918313F738
:10210000F700B707002093870705BA978C23DC42B6
:10211000184093F5F50F93F707083355B70081E79B
:102120003A85EFD03FFB48C008C448C4B717024007
:10213000DC438D46AD83FD8B13D737008A07F18BC7
:10214000D98F13F6370113F7370063F4C6001387EE
:1021500047FFB70700209387C703BA978C23EFD0B8
:102160007FF708C86FD07FF45C43B777DC029387B2
:1021700007C049B799C5371702405C4B5D8D48CB06
:102180008280B7170240D84B1345F5FF798DC8CB35
:10219000828099C5371702401C4F5D8D08CF828021
:1021A000B7170240984F1345F5FF798D88CF82808D
:1021B00099C5371702405C475D8D48C78280B717C5
:1021C0000240D8471345F5FF798DC8C78280EFD20A
:1021D0003FED1629F577FD17F58FF621DA25211148
:1021E000D58F1EA95625FD779387379FF58FD6216A
:1021F0002A842EC0D58F9625D58FB625D58F5EA57E
:102200005E29C207C18393F7F7CF5D8F5AA94800B3
:10221000EFF03FECB7470140938707808245631298
:10222000F406C2475A24139517003E9542070E053F
:1022300041873E958C41635807048605EFD09FE99E
:10224000930540062AC0EFD0FFE88247931445006B
:10225000930540063E85EFD0BFEA5E24C207C187E2
:1022600063D507020E059305400613052503EFD03D
:102270007FE61D89C98CC204C18006A461016FD0AC
:10228000DFE2B24745B78A0555BF12059305400600
:1022900013052503EFD01FE43D89E9BF91C55E25F5
:1022A0000967D98F5EA582805A25F977FD17F98FC6
:1022B000D5BF13F7F50F85471583B395B70063199D
:1022C000F7009307C500984301CED98D8CC3828057
:1022D000894693074501E318D7FE93070501E5B743
:1022E00093C5F5FFF98DDDB75E2901C6DD8D4EA9D9
:1022F000828093C5F5FFFD8DDDBF93F5F51F4EA1DF
:1023000082800A216D8D3335A000828013F7F50F8E
:1023100085461583B397B6006311D7025A25F98F06
:102320001A2101454207418381CB0545A181B3159F
:10233000B5006D8F3335E000828089466314D70085
:102340001A29F1BF5A29E1BF3707002013070706F2
:102350001C43938601943E956369D500938681E37F
:1023600063E5A60008C33E858280FD57EDBF1301DB
:10237000C1F8A2D686D8A6D43284635C060093073F
:10238000B0081CC17D55C6503654A65413014107F0
:1023900082803686930680202EC02EC874868145A2
:1023A00019C09305F4FFFD572EC42ECABA868A853C
:1023B0007C87AA84192AFD576355F5009307B00856
:1023C0009CC071D082472380070075BF97E7FF1F2D
:1023D0009387C7CF3687B2862E86AA85884341BFAA
:1023E00003A38500111126C806CC22CA32C2AE84CE
:1023F00063E16608D2251377064835CBAA82C84820
:1024000080408C49131715002A971355F701B3071D
:10241000B4402A97138516003EC0135417403E95CA
:102420006373A4002A841376064036C625C6168533
:10243000A28516C4EF00900CA242B246314735C9BE
:1024400002468C4836C62AC4C52DD2242243B24641
:102450001376F6B713660608D2A4824723A8640051
:10246000C0C83E931D8C23A0640080C4368363F3F0
:1024700066003683924588401A861AC079279844A8
:10248000024301453307674098C498403A9323A01C
:1024900064003DA01685228616C4EF0070132A83BF
:1024A000A242B2465DF98C48168516C05527824275
:1024B000314723A0E200DA247D5513670704DAA42C
:1024C000E2405244C24471018280DA25130181F74F
:1024D00022C1A6DE9307F10106C32AC22EC01377DC
:1024E0000708B28413F487FF1DCB98490DEB9305C1
:1024F000000436C6EF0090008247B24688C388CBFE
:1025000019E91247B1477D551CC39A400A44F65455
:10251000130181088280824713070004D8CB130778
:10252000000218BC13070003232A040038AC36CA83
:10253000268713065002142399C26393C60A3303F5
:10254000974063020302824512459A8626863AC85E
:102550001AC6EFF0FFE8FD56630ED51A5448324311
:1025600042479A9654C814236386061A93041700A8
:102570007D57232004002326040058C02324040090
:10258000A3010404232C04048C2015461715000015
:102590001305450B712313871400144021E513F62E
:1025A000060109C613060002A301C40413F686003F
:1025B00009C61306B002A301C4048C201306A002AE
:1025C000638FC50254442687814525451023130394
:1025D0001700130606FD6377C50695C954C405A800
:1025E000050791BF171600001306C6053306C54040
:1025F00005453315C500C98E14C0BA8471B752465B
:102600009305460010422ECA6347060250C41023A9
:102610009306E0026311D60610339306A002631EF0
:10262000D602D246090713864600944232CA63C4D2
:10263000060254C089A03306C04093E6260050C469
:1026400014C0F1B71397260036970607B306C700E4
:1026500085451A87A5BFFD56E9BF0507232204005B
:10266000814581462545102313031700130606FDF7
:102670006376C506DDFD0C230D4617150000130516
:10268000E5FC3AC67129324711CD971600009386B2
:10269000E6FB158D93060004B396A60008400507D7
:1026A000558D08C00C23194617150000130545FA6F
:1026B000930417000CACAD213DC517E7FFFF1307CE
:1026C000679405EB1440524793F606108DC211072C
:1026D0003ACA5848A2473E9758C899BD1397260052
:1026E00036970607B306C70085451A87ADBF210791
:1026F000C5B702461245580897060000938686CE55
:10270000A28597000000E70000002AC4A2477D5779
:10271000E391E7FC82477D55DA2713770704E31638
:1027200007DE4848DDB30246124558089706000008
:10273000938646CBA285052AC9BF011126CA3283DA
:10274000B6849045944922CC06CE2A84AE8763D3C2
:10275000C600B2862320D30003C6370401C685060F
:102760002320D300944393F6060291C683260300E8
:1027700089062320D30083A207009383970193F255
:10278000620063830206904383C637041376060211
:10279000B336D00041EA13863704A68522851AC4D1
:1027A0003EC23AC00297FD566308D50692472243BF
:1027B0001145944303260300CC47998A01430247FD
:1027C0006397A6003383C5406353030001439447D6
:1027D000904B6354D600918E36938142E907631281
:1027E000530601451DA88502D44703260300918E98
:1027F000E3DBD2F885461E86A68522851AC83EC62A
:1028000016C41EC23AC00297FD5602479243A24226
:10281000B2474243E319D5FC7D55F2406244D244AD
:1028200005618280B385D70013050003A381A50449
:1028300083C55704138616003E968906A301B60485
:1028400099BF85463E86A685228516C61AC43EC215
:102850003AC00297FD56E301D5FCB24222439247AB
:1028600085020247ADBF130141FD22D206D426D016
:1028700032C2902D36C42AC0930690062E849382CD
:102880003504630DD60263E2C60693068005630F26
:10289000D61863EDC6006307062293063004630C66
:1028A000D60A930424042301C4047DA893063006A9
:1028B0006303D60A93064006E315D6FE1440084388
:1028C00013F606089305450055C214410CC363D89E
:1028D00006001307D002B306D040A301E404171684
:1028E0000000130666D7294755A893060007630B17
:1028F000D61663E5C6029306E0066302D61A93066F
:10290000F006E310D6FA0C40144313F305081385C0
:1029100046006305030608C39442B5A0930650071A
:10292000E303D6FE930680076302D61493063007AE
:10293000E319D6F614431386460010C38442D041EF
:1029400081452685F12A19C1058D48C0584018C80F
:10295000A30104045DA814439304240413864600D1
:1029600010C398422301E4040547D5B713F60604C3
:1029700014410CC329DEC206C18691BF93F505043C
:1029800008C3D9D996221307F0066302E61017167A
:102990000000130666CC2947A30104044C400CC474
:1029A00063C5050008406D9908C099E296849DC9E9
:1029B0009684BA85368516CC32CA3AC836C6EFD068
:1029C0002FF452464247B24632950C21FD1436850B
:1029D0008CA0BA85EFD00FF0B24642475246E24291
:1029E00063FDE60AA146631ED7001840058B11CB94
:1029F000544018486347D70013070003A38FE4FE31
:102A0000FD14B38292402328540022479246024587
:102A10007008A285EFF07FD27D576319E50A7D55D6
:102A2000A250125482541301C1028280A382C504B1
:102A300017160000130646C20C40084313F305089E
:102A400014411105630D030208C313F7150001C7F4
:102A500093E505020CC04147A1F20C4093F5F5FD4A
:102A60000CC01DBF944193E6060294C193068007F3
:102A7000A302D40417160000130646BF75BF13F354
:102A8000050408C3E30303FCC206C1827DBF171619
:102A90000000130666BC214701B7AA8619BF904102
:102AA0001443CC49137306081385460063060300DC
:102AB00008C398420CC339A008C313760604984291
:102AC00075DA0EA323280400968481B71448924532
:102AD0000245A247268682977D57E302E5F4184017
:102AE000098B1DEB72474844E35CE5F23A850DBF64
:102AF00092450245A24785461A863AC81AC6829769
:102B0000FD56E30ED5F04247324305075444724662
:102B1000918EE34FD7FCF9B7014713039401FDB73A
:102B200093F5F50F2A966314C500014582801C2198
:102B3000E38EB7FE0505C5BFB3C7A5008D8B330770
:102B4000C50081E78D4763E7C702AA87637EE50A70
:102B5000942185078505A38FD7FEE3EBE7FE8280EE
:102B6000942185078505A38FD7FEE3EBE7FE02449A
:102B70001101828093763500AA8789CA942185073E
:102B80008505A38FD7FE93F63700C5BF9376C7FFA1
:102B9000138606FE63F5C706711122C0C04903A360
:102BA000050083A38500C0CB804D23A0670003A34D
:102BB000450080CFC04D23A2670083A2C50003A3B8
:102BC000050193854502C0CF03A4C5FF23A4770068
:102BD00023A6570023A867009387470223AE87FEEA
:102BE000E3EEC7FAE3F3D7F890419107910523AEDE
:102BF000C7FECDBF90419107910523AEC7FEE3EB21
:102C0000D7FEE3E7E7F48280828063F1A504B38610
:102C1000C500637DD5029345F6FF8147FD17639399
:102C2000F50082803387F600034307003387C7002F
:102C30002A9723006700DDB73387F5001423330795
:102C4000F500850714A3E319F6FE82808147E5BFEE
:102C5000CDC583A7C5FF511122C206C426C0138467
:102C6000C5FF63D307003E94AA84E52297D7FF1FD0
:102C7000938747469C4389EF2322040097D7FF1F81
:102C800023AA87441244A240268582443101D9A256
:102C9000637EF40014403307D4006396E700984342
:102CA000DC43369718C05CC0D1BFBA87D84319C37C
:102CB000E37DE4FE94433386D700631F8600104013
:102CC000B29694C33386D700E31EC7FA1043584325
:102CD000B29694C3D8C37DB76375C400B1479CC096
:102CE00055B71040B306C4006316D70014435843C9
:102CF000B29614C058C0C0C371B78280411126C2B9
:102D000093843500F19806C622C4A104B14763F547
:102D1000F404B14463E4B4042AC0252A13878180F3
:102D200014438247368439E01387C180184301EB8E
:102D30003E8581453EC0CD2823A6A18082473E85A1
:102D4000A6853EC0D5207D5782476314E5063147EE
:102D500098C33E85012229A0E3DE04FAB1471CC1D5
:102D60000145B24022449244410182801840058FBF
:102D7000634E07022D466376E60018C03A9404C0FD
:102D800031A058406392860223A4E1803E85D92079
:102D90001305B400130744006199B307E540F1D36C
:102DA0003E94098F18C075BFD8C2CDB7A2864040E7
:102DB0009DBF130435007198E30385FCB305A4405F
:102DC0003E853EC095207D578247E31AE5FA41B71C
:102DD00081E5B2856FF09FF2311106C822C626C484
:102DE00011EAEFF0FFE68147C2403244A2443E853B
:102DF000510182802E8432C0AA84B1280246A28763
:102E0000E374C5FEB285268532C2EFF03FEFAA8794
:102E100061DD1246A2852AC0EFF01FD2A285268569
:102E2000EFF01FE38247C9B7511122C22A842E85D1
:102E300023AE019206C4EFF02FD1FD576317F500C2
:102E40009387C1939C4391C31CC0A240124431019B
:102E500082808280828083A7C5FF1385C7FF63D5E8
:102E60000700AA959C413E958280000050726565DE
:102E70006D7063616F20444553415449564144414C
:102E80000D0A00004572726F3A204E616F20686132
:102E900020707265656D7063616F20617469766121
:102EA0000D0A0000507265656D7063616F204154BA
:102EB0004956414441206E61205461736B25640D75
:102EC0000A0000004572726F3A20507265656D709D
:102ED00063616F206A61206174697661210D0A0067
:102EE000507265656D7063616F2044495350415263
:102EF000414441210D0A00004572726F3A2041742D
:102F0000697665206120707265656D7063616F2000
:102F10007072696D6569726F0D0A00003D3D3D3D3F
:102F20003D3D3D3D3D3D3D3D3D3D3D3D3D3D3D3DD1
:102F30003D3D3D3D3D3D3D3D3D3D3D3D3D3D3D3DC1
:102F40003D3D3D3D0D0A20204344432D5020763326
:102F50002E30202D2053495354454D4120494E4990
:102F6000434941444F0D0A20204348333256303004
:102F70003346345036202D204D4F444F204D4F4482
:102F8000554C41520D0A202052544F532041757424
:102F90006F636F6E736369656E74652F43796265E5
:102FA00072204F7267616E69736D6F0D0A3D3D3D12
:102FB0003D3D3D3D3D3D3D3D3D3D3D3D3D3D3D3D41
:102FC0003D3D3D3D3D3D3D3D3D3D3D3D3D3D3D3D31
:102FD0003D3D3D3D3D0D0A4C6962733A20494F2B02
:102FE00055534152542B5379735469636B2B4144AD
:102FF000432B444D410D0A546172656661733A205A
:10300000312D36202B20392D31300D0A4144433AE1
:1030100020434832202850433429206120636164D2
:1030200061203530306D730D0A4275666665722019
:1030300052583A2031206120363420627974657309
:10304000202849444C45290D0A3D3D3D3D3D3D3D2F
:103050003D3D3D3D3D3D3D3D3D3D3D3D3D3D3D3DA0
:103060003D3D3D3D3D3D3D3D3D3D3D3D3D3D3D3D90
:103070003D0D0A434F4D414E444F533A0D0A202017
:1030800070203D20507265656D7063616F205461E2
:10309000736B310D0A20206E203D204465736174EE
:1030A0006976617220707265656D7063616F0D0A7B
:1030B000202065203D204469737061726172207028
:1030C0007265656D7063616F0D0A202075203D206B
:1030D000557267656E636961205461736B310D0AC7
:1030E000202073203D2053746174757320726573C2
:1030F000756D69646F0D0A202064203D204469616C
:10310000676E6F737469636F20636F6D706C657445
:103110006F0D0A202031203D205469636B20316DF2
:10312000730D0A202032203D205469636B2031301A
:103130006D730D0A202033203D205469636B2031CC
:1031400030306D730D0A3D3D3D3D3D3D3D3D3D3DC6
:103150003D3D3D3D3D3D3D3D3D3D3D3D3D3D3D3D9F
:103160003D3D3D3D3D3D3D3D3D3D3D3D3D3D0D0AF2
:103170000D0A000050414E4500000000424C4F51E6
:103180005545414441000000455845435554414E82
:10319000444F00004C494741444F00004445534CC4
:1031A000494741444F000000534F4C544F0000002A
:1031B0005052455353494F4E41444F00424C4F519A
:1031C000554541444F000000415449564F0000000E
:1031D0004154495641000000494E4154495641006E
:1031E000555247454E5445006E6F726D616C00003C
:1031F000557267656E7465210D0A00003D3D3D20E6
:10320000535441545553204344432D502076332E7C
:1032100030203D3D3D0D0A005469636B3A20256C1A
:10322000750D0A00536567756E646F3A20256C75DD
:103230000D0A00004144433A2025642028256420DB
:103240006D56290D0A0000003D3D3D3D3D3D3D3D93
:103250003D3D3D3D3D3D3D3D3D3D3D3D3D3D3D3D9E
:103260003D3D3D3D3D3D3D3D3D3D3D3D3D3D3D3D8E
:103270000D0A00002020444941474E4F5354494312
:103280004F20434F4D504C45544F204344432D5005
:103290002076332E300D0A005B4B45524E454C5D77
:1032A0000D0A000020205469636B3A20256C750DCF
:1032B0000A0000002020536567756E646F3A202570
:1032C0006C750D0A000000002020426173652031FA
:1032D000733A20256C75207469636B730D0A0000C6
:1032E0005B5441534B20315D204C454431202850E4
:1032F0004330290D0A0000002020506572696F6478
:103300006F3A20256C75207469636B732028256CD7
:10331000756D73290D0A0000202045737461646F78
:103320003A2025730D0A000020205265696E6369FA
:1033300064656E636961733A20256C750D0A00003F
:1033400020204C45443A2025730D0A005B5441531C
:103350004B20325D204C4544322028504331290D0A
:103360000A0000005B5441534B20335D20436F6DD6
:10337000616E646F7320536572696169730D0A0031
:1033800020204275666665722052583A20256420D6
:1033900062797465730D0A005B5441534B20345DB0
:1033A0002053746174757320506572696F6469632A
:1033B0006F0D0A002020506572696F646F3A2025F6
:1033C0006C7520736567756E646F730D0A0000007D
:1033D0005B5441534B20355D20426F74616F202850
:1033E000504332290D0A00002020426F74616F3A69
:1033F0002025730D0A0000005B5441534B20365DBD
:10340000204144432028504334290D0A0000000085
:10341000202056616C6F72204144433A2025640D90
:103420000A000000202054656E73616F3A20256405
:10343000206D560D0A0000005B5441534B20395D4E
:10344000204F2053494E4449434F0D0A00000000CD
:103450002020506572696F646F3A20256C75207466
:1034600069636B730D0A00005B5441534B2031308C
:103470005D204F205845524946450D0A0000000086
:10348000202045737461646F3A20415449564F209F
:10349000286E756E636120626C6F71756561646F13
:1034A000290D0A00202050616E65733A2025640DB5
:1034B0000A0000005B505245454D5043414F2043A8
:1034C00044432D505D0D0A0020205461736B3A2057
:1034D00025640D0A000000002020506572696F64A9
:1034E0006F206F726967696E616C3A20256C750D8B
:1034F0000A0000005B555247454E43494153205551
:1035000052472D535D0D0A002020466C6167733AC7
:10351000203078253034580D0A00000020205461F6
:10352000736B313A2025730D0A000000202054618E
:10353000736B323A2025730D0A000000202054617D
:10354000736B333A2025730D0A000000202054616C
:10355000736B343A2025730D0A000000202054615B
:10356000736B353A2025730D0A000000202054614A
:10357000736B363A2025730D0A000000202046495F
:103580004D20444F20444941474E4F535449434FE7
:103590000D0A00005469636B3A20316D730D0A0007
:1035A0005469636B3A2031306D730D0A00000000DE
:1035B0005469636B3A203130306D730D0A0000009E
:1035C0003D3D3D2053746174757320506572696F81
:1035D0006469636F202836307329203D3D3D0D0A14
:1035E00000000000426F74616F2070726573736930
:1035F0006F6E61646F2121210D0A00004144432058
:103600004348323A20256420282564206D56290D30
:103610000A00000046414C48412043524954494366
:10362000413A2053696E6469636F20656D20706153
:103630006E65212052657365742E2E2E0D0A0000D2
:10364000232D302B20000000686C4C006566674518
:10365000464700003031323334353637383941424D
:1036600043444546000000003031323334353637AC
:0C36700038396162636465660000000088
:10367C004000000064000000020000000100000097
:10368C0004000000010000003C00000003000000EA
:10369C0032000000010000000102030405060708C7
:1036AC000102030405060708006CDC02020406088C
:1036BC0004080C10081018201020304020406080A6
:1036CC0001020304050607080102030405060708A6
:1036DC0008020020000000000000000000000000B4
:1036EC0000000000000000000000000000000000CE
:1036FC0000000000000000000000000000000000BE
:10370C0000000000000000000000000000000000AD
:10371C00000000000000000000000000000000009D
:10372C00000000000000000000000000000000008D
:10373C0000000000000000006400002000000000F9
:00000001FF
