:1000000003308A00072B0000FF00030E8301A100CC
:100010007F08A0000A08A7008A01A00E0408A20019
:100020007708A3007808A4007908A5007A08A6003C
:10003000831383128B1E1E280B1965288C308400B5
:10004000801E24288C1A74288C308400001E2A28D4
:100050000C1AA528220884002308F7002408F800B9
:100060002508F9002608FA0027088A00210E8300D7
:10007000FF0E7F0E09000A108A100A11820742340F
:1000800054342034503472346534733473346934E6
:100090006F346E34613464346F3421340A340D3477
:1000A0000A108A100A1182074334443443342D3431
:1000B00050342034503449344334313436344634A7
:1000C0003634323438340A340D3404308506AC0A00
:1000D000AD0A56082D02031D6F28AE0AAD012F0888
:1000E00081000B118A112A2898187828181D7E285B
:1000F000181218161A08A900AA01A2282A08AA0A82
:10010000283E840083131A0880002A0B8828AA013D
:100110002808753C031DA2280230DC005C0B9128E6
:10012000B2145C08023C031932155C08033C031945
:10013000B2155C08043C031932165C08053C03192F
:10014000B216A8018C128A112A28370BB6282B0860
:10015000AB0A3B20F80099002B08113C031DB52881
:10016000AB01B701831698128312CD283708023CE1
:10017000031DC9282B08AB0A5020F80099002B0852
:10018000113C031DC828AB01B701831698128312D6
:10019000CD28B7018316981283120C128A112A28CF
:1001A00083168111011081100115811283122F080D
:1001B00081004C2B8B164D2B850186018316051172
:1001C0000510061006138312061186148316861373
:1001D00083128617831685148312361085183614F9
:1001E0008316851183124E2B1930831699008312C2
:1001F0009817831618151812831218160B178316E2
:100200008C1698120C1683124F2B8B17502B5A08F2
:10021000F801590203180F295908F7001B29F701A3
:100220000830DB00D90DF70D5A0877020318F700E4
:10023000F80DDB0B122908000130850638082C0266
:10024000D800D9004908DA0007217808BF00BF08A4
:1002500003192C290130C9074908023C031CB014BA
:1002600008000130860639082C02D800D9004A0857
:10027000DA0007217808C000C008031941290130BD
:10028000CA074A08043C031C301508004508F8005A
:1002900008005708023C031D5B29831681110110D9
:1002A00081140111811206308312AF002F088100E2
:1002B000F430D60090295708043C031D6D2983169D
:1002C0008111011481140111811206308312AF00D3
:1002D0002F088100FA30D60090295708083C031DEA
:1002E0007F298316811101108110011581120630BA
:1002F0008312AF002F0881007D30D6009029570867
:10030000323C031D902983168111011481140115BB
:1003100081123D308312AF002F0881001430D600C7
:1003200008002808703C031DE5294621F808031D34
:10033000E5290130D700C508031DE429570BA22980
:10034000B418E4295708023C031DA8293419E429EC
:100350005708033C031DAE29B419E4295708043C8F
:10036000031DB429341AE4295708053C031DBA2992
:10037000B41AE4290130C5005708C600570BC42938
:100380004908C7000130C9005708023C031DCC29A9
:100390004A08C7000130CA005708033C031DD4298E
:1003A0004B08C7000130CB005708043C031DDC2973
:1003B0004C08C7000130CC005708053C031DE42958
:1003C0004D08C7000130CD00A80128086E3C031D70
:1003D0000E2A4621780B0E2A450B0D2A460BF229D0
:1003E0004708C9004608023C031DF8294708CA000F
:1003F0004608033C031DFE294708CB004608043C81
:10040000031D042A4708CC004608053C031D0A2AA0
:100410004708CD00C501C601C701A8012808653CF1
:10042000031D332A450B322A460B182AB418322AE8
:100430004608023C031D1E2A3419322A4608033C92
:10044000031D242AB419322A4608043C031D2A2A13
:10045000341A322A4608053C031D302AB41A322ABF
:100460000130C800A8012808323C031D3B2A023095
:10047000D7004921A8012808343C031D432A043031
:10048000D7004921A8012808383C031D4B2A083011
:10049000D7004921A8012808353C031D532A3230D2
:1004A000D7004921A8013A082C02D800D9004B08EE
:1004B000DA0007217808C100C1080319612A013058
:1004C000CB074B08023C031CB01508000230B700F4
:1004D0008316981683123B082E02D800D9004C08C8
:1004E000DA0007217808C200C2080319792A01300E
:1004F000CC074C083C3C031C3016080085188D2A9C
:10050000361C8D2A361085183614083085060130C1
:10051000B70083169816912A831236108518361460
:10052000831683123C082C02D800D9004D08DA004B
:1005300007217808C300C3080319A02A0130CD079A
:100540004D08033C031CB01608005008043C031877
:10055000AC2A8613B014B4145108043C0318B32A0F
:100560008613301534155208043C0318BA2A861332
:10057000B015B4155308043C0318C12A861330166D
:1005800034165408043C0318C82A8613B016B4164F
:10059000CB2BB01CD12AB418D12A0130C902B0101B
:1005A000D00A301DD92A3419D92A0130CA02301193
:1005B000D10AB01DE12AB419E12A0130CB02B011F1
:1005C000D20A301EE92A341AE92A0130CC0230124C
:1005D000D30AB01EF12AB41AF12A0130CD02B012AA
:1005E000D40AB11CF72A0130CE02B110D50A3D0859
:1005F0002C02D800D9004E08DA0007217808C40080
:100600004E08013C0318062B8A010028D82B03084A
:100610001F398300193083169900A6309800903056
:1006200083129800A901AA01AB01AC01AD01AE0192
:100630000630AF00B101B001B301B201B501B401A0
:100640003610B701B801B901BA01BB01BC01BD0147
:10065000BE01BF01C001C101C201C301C401C50186
:10066000C601C701C8010230C9000430CA00023007
:10067000CB003C30CC000330CD000130CE00CF00A9
:10068000D001D101D201D301D401D5017D30D600F2
:1006900007309F008313D028DA28DC28F4280529A6
:1006A00040308606B208031D582BB30803198F2B60
:1006B000B21C632BB018632BB418632BB2102C0838
:1006C000B800BF011C21321D6E2B30196E2B34195E
:1006D0006E2B32112C08B900C0013121B21D792BCB
:1006E000B019792BB419792BB2112C08BA00C101B9
:1006F0009121321E842B301A842B341A842B32120F
:100700002E08BB00C2016622B21E8F2BB01A8F2B9F
:10071000B41A8F2BB2122C08BC00C3017E22C80869
:100720000319C12BC6080319C12BC801460B9D2B09
:10073000B4189D2B2C08B8001C214608023C031D50
:10074000A62B3419A62B2C08B90031214608033CEE
:10075000031DAF2BB419AF2B2C08BA00912146080A
:10076000043C031DB82B341AB82B2C08BB0066229E
:100770004608053C031DC12BB41AC12B2C08BC0034
:100780007E223E082C024F020319C82B0318CB2BE4
:100790002C08BE00A52A3D082C024E020319D22BBC
:1007A0000318D82BB118D82B2C08BD00C401C92AB6
:1007B00038082C0249020319DF2B0318E52BB01867
:1007C000E52B2C08B800BF011C2139082C024A0275
:1007D0000319EC2B0318F22B3019F22B2C08B9005B
:1007E000C00131213A082C024B020319F92B0318DE
:1007F000FF2BB019FF2B2C08BA00C10191213B0837
:100800002E024C020319062C03180C2C301A0C2C47
:100810002E08BB00C20166223C082C024D020319BF
:10082000132C0318192CB01A192C2C08BC00C30166
:060830007E22502B630044
:02400E00613F10
:00000001FF
;PIC16F628A
;CRC=EF95  CREATED="20-set-26 13:21"
